{
  "contractName": "Swapper",
  "abi": [
    {
      "inputs": [
        {
          "internalType": "address",
          "name": "_ZERO_X_ADDRESS",
          "type": "address"
        },
        {
          "internalType": "address",
          "name": "_ONEINCHADDRESS",
          "type": "address"
        },
        {
          "internalType": "address",
          "name": "_OPENOCEANADDRESS",
          "type": "address"
        },
        {
          "internalType": "address",
          "name": "_PARASWAPADDRESS",
          "type": "address"
        },
        {
          "internalType": "address",
          "name": "_AdmiWalletAddress",
          "type": "address"
        }
      ],
      "stateMutability": "payable",
      "type": "constructor"
    },
    {
      "anonymous": false,
      "inputs": [
        {
          "indexed": true,
          "internalType": "address",
          "name": "account",
          "type": "address"
        },
        {
          "indexed": true,
          "internalType": "bool",
          "name": "status",
          "type": "bool"
        }
      ],
      "name": "AdminAdded",
      "type": "event"
    },
    {
      "anonymous": false,
      "inputs": [
        {
          "indexed": true,
          "internalType": "address",
          "name": "account",
          "type": "address"
        },
        {
          "indexed": true,
          "internalType": "bool",
          "name": "status",
          "type": "bool"
        }
      ],
      "name": "AdminRemoved",
      "type": "event"
    },
    {
      "anonymous": false,
      "inputs": [
        {
          "indexed": true,
          "internalType": "address",
          "name": "account",
          "type": "address"
        },
        {
          "indexed": true,
          "internalType": "uint256",
          "name": "commissionAmount",
          "type": "uint256"
        }
      ],
      "name": "CommissionTransferred",
      "type": "event"
    },
    {
      "anonymous": false,
      "inputs": [
        {
          "indexed": true,
          "internalType": "address",
          "name": "account",
          "type": "address"
        },
        {
          "indexed": true,
          "internalType": "uint256",
          "name": "amount",
          "type": "uint256"
        }
      ],
      "name": "FUNDTransferred",
      "type": "event"
    },
    {
      "anonymous": false,
      "inputs": [
        {
          "indexed": true,
          "internalType": "address",
          "name": "AdmiWalletAddress",
          "type": "address"
        },
        {
          "indexed": true,
          "internalType": "uint256",
          "name": "feeAmount",
          "type": "uint256"
        }
      ],
      "name": "transferFeeFund",
      "type": "event"
    },
    {
      "anonymous": false,
      "inputs": [
        {
          "indexed": true,
          "internalType": "address",
          "name": "token",
          "type": "address"
        },
        {
          "indexed": true,
          "internalType": "address",
          "name": "from",
          "type": "address"
        },
        {
          "indexed": true,
          "internalType": "uint256",
          "name": "actualAmount",
          "type": "uint256"
        }
      ],
      "name": "transferFundToR",
      "type": "event"
    },
    {
      "inputs": [],
      "name": "AdmiWalletAddress",
      "outputs": [
        {
          "internalType": "address",
          "name": "",
          "type": "address"
        }
      ],
      "stateMutability": "view",
      "type": "function"
    },
    {
      "inputs": [],
      "name": "AdminFeePercentage",
      "outputs": [
        {
          "internalType": "uint256",
          "name": "",
          "type": "uint256"
        }
      ],
      "stateMutability": "view",
      "type": "function"
    },
    {
      "inputs": [],
      "name": "SCALING_FACTOR",
      "outputs": [
        {
          "internalType": "uint256",
          "name": "",
          "type": "uint256"
        }
      ],
      "stateMutability": "view",
      "type": "function"
    },
    {
      "stateMutability": "payable",
      "type": "receive"
    },
    {
      "inputs": [
        {
          "internalType": "address",
          "name": "user",
          "type": "address"
        }
      ],
      "name": "addAdmin",
      "outputs": [],
      "stateMutability": "nonpayable",
      "type": "function"
    },
    {
      "inputs": [
        {
          "internalType": "address",
          "name": "user",
          "type": "address"
        }
      ],
      "name": "removeAdmin",
      "outputs": [],
      "stateMutability": "nonpayable",
      "type": "function"
    },
    {
      "inputs": [
        {
          "internalType": "address",
          "name": "token",
          "type": "address"
        },
        {
          "internalType": "uint256",
          "name": "amount",
          "type": "uint256"
        }
      ],
      "name": "withdrawFunds",
      "outputs": [
        {
          "internalType": "bool",
          "name": "",
          "type": "bool"
        }
      ],
      "stateMutability": "nonpayable",
      "type": "function"
    },
    {
      "inputs": [],
      "name": "withdraw",
      "outputs": [
        {
          "internalType": "bool",
          "name": "",
          "type": "bool"
        }
      ],
      "stateMutability": "nonpayable",
      "type": "function"
    },
    {
      "inputs": [
        {
          "internalType": "address",
          "name": "tokenIn",
          "type": "address"
        },
        {
          "internalType": "address",
          "name": "approveTarget",
          "type": "address"
        },
        {
          "internalType": "bytes",
          "name": "swapCallData",
          "type": "bytes"
        }
      ],
      "name": "calldataSwap",
      "outputs": [
        {
          "internalType": "uint256",
          "name": "",
          "type": "uint256"
        }
      ],
      "stateMutability": "nonpayable",
      "type": "function"
    },
    {
      "inputs": [
        {
          "internalType": "uint256",
          "name": "_newFeePercentage",
          "type": "uint256"
        }
      ],
      "name": "UpdateAdminFee",
      "outputs": [
        {
          "internalType": "bool",
          "name": "",
          "type": "bool"
        }
      ],
      "stateMutability": "nonpayable",
      "type": "function"
    },
    {
      "inputs": [
        {
          "internalType": "address",
          "name": "token",
          "type": "address"
        },
        {
          "internalType": "address",
          "name": "from",
          "type": "address"
        },
        {
          "internalType": "address",
          "name": "to",
          "type": "address"
        },
        {
          "internalType": "uint256",
          "name": "_Amount",
          "type": "uint256"
        }
      ],
      "name": "transferFund",
      "outputs": [],
      "stateMutability": "nonpayable",
      "type": "function"
    },
    {
      "inputs": [
        {
          "internalType": "uint256",
          "name": "_amount",
          "type": "uint256"
        }
      ],
      "name": "toCalculateAdminFee",
      "outputs": [
        {
          "internalType": "uint256",
          "name": "",
          "type": "uint256"
        }
      ],
      "stateMutability": "view",
      "type": "function"
    }
  ],
  "bytecode": "0x6080604052600260035560405162001dd138038062001dd183398181016040528101906200002e919062000270565b60015f819055508460055f8060ff1681526020019081526020015f205f6101000a81548173ffffffffffffffffffffffffffffffffffffffff021916908373ffffffffffffffffffffffffffffffffffffffff1602179055508360055f600160ff1681526020019081526020015f205f6101000a81548173ffffffffffffffffffffffffffffffffffffffff021916908373ffffffffffffffffffffffffffffffffffffffff1602179055508260055f600260ff1681526020019081526020015f205f6101000a81548173ffffffffffffffffffffffffffffffffffffffff021916908373ffffffffffffffffffffffffffffffffffffffff1602179055508160055f600360ff1681526020019081526020015f205f6101000a81548173ffffffffffffffffffffffffffffffffffffffff021916908373ffffffffffffffffffffffffffffffffffffffff1602179055503360015f6101000a81548173ffffffffffffffffffffffffffffffffffffffff021916908373ffffffffffffffffffffffffffffffffffffffff1602179055508060025f6101000a81548173ffffffffffffffffffffffffffffffffffffffff021916908373ffffffffffffffffffffffffffffffffffffffff1602179055505050505050620002f4565b5f80fd5b5f73ffffffffffffffffffffffffffffffffffffffff82169050919050565b5f6200023a826200020f565b9050919050565b6200024c816200022e565b811462000257575f80fd5b50565b5f815190506200026a8162000241565b92915050565b5f805f805f60a086880312156200028c576200028b6200020b565b5b5f6200029b888289016200025a565b9550506020620002ae888289016200025a565b9450506040620002c1888289016200025a565b9350506060620002d4888289016200025a565b9250506080620002e7888289016200025a565b9150509295509295909350565b611acf80620003025f395ff3fe60806040526004361061009f575f3560e01c80637f97df76116100635780637f97df761461018857806380b986ec146101c45780638611ac9714610200578063aa6d8a361461022a578063c107532914610254578063ef4cadc514610290576100a6565b80631785f53c146100aa5780633ccfd60b146100d25780634608478f146100fc578063704802751461012457806377d4f2c11461014c576100a6565b366100a657005b5f80fd5b3480156100b5575f80fd5b506100d060048036038101906100cb9190611034565b6102ba565b005b3480156100dd575f80fd5b506100e6610454565b6040516100f39190611079565b60405180910390f35b348015610107575f80fd5b50610122600480360381019061011d91906110c5565b610544565b005b34801561012f575f80fd5b5061014a60048036038101906101459190611034565b610947565b005b348015610157575f80fd5b50610172600480360381019061016d9190611129565b610ae3565b60405161017f9190611079565b60405180910390f35b348015610193575f80fd5b506101ae60048036038101906101a99190611290565b610bc7565b6040516101bb919061130b565b60405180910390f35b3480156101cf575f80fd5b506101ea60048036038101906101e59190611129565b610d63565b6040516101f7919061130b565b60405180910390f35b34801561020b575f80fd5b50610214610d95565b604051610221919061130b565b60405180910390f35b348015610235575f80fd5b5061023e610d9b565b60405161024b9190611333565b60405180910390f35b34801561025f575f80fd5b5061027a6004803603810190610275919061134c565b610dc0565b6040516102879190611079565b60405180910390f35b34801561029b575f80fd5b506102a4610f6e565b6040516102b1919061130b565b60405180910390f35b60015f9054906101000a900473ffffffffffffffffffffffffffffffffffffffff1673ffffffffffffffffffffffffffffffffffffffff163373ffffffffffffffffffffffffffffffffffffffff1614610349576040517f08c379a0000000000000000000000000000000000000000000000000000000008152600401610340906113e4565b60405180910390fd5b8073ffffffffffffffffffffffffffffffffffffffff165f73ffffffffffffffffffffffffffffffffffffffff16036103b7576040517f08c379a00000000000000000000000000000000000000000000000000000000081526004016103ae9061144c565b60405180910390fd5b5f60045f8373ffffffffffffffffffffffffffffffffffffffff1673ffffffffffffffffffffffffffffffffffffffff1681526020019081526020015f205f6101000a81548160ff0219169083151502179055505f15158173ffffffffffffffffffffffffffffffffffffffff167f01afe37868296aa0070828d2b2d82e3f14d96e96743c121ebb9516b03a0b0cca60405160405180910390a350565b5f61045d610f73565b60015f9054906101000a900473ffffffffffffffffffffffffffffffffffffffff1673ffffffffffffffffffffffffffffffffffffffff163373ffffffffffffffffffffffffffffffffffffffff16146104ec576040517f08c379a00000000000000000000000000000000000000000000000000000000081526004016104e3906113e4565b60405180910390fd5b5f4790503373ffffffffffffffffffffffffffffffffffffffff166108fc8290811502906040515f60405180830381858888f19350505050158015610533573d5f803e3d5ffd5b506001915050610541610fc0565b90565b61054c610f73565b5f810361058e576040517f08c379a0000000000000000000000000000000000000000000000000000000008152600401610585906114da565b60405180910390fd5b8173ffffffffffffffffffffffffffffffffffffffff165f73ffffffffffffffffffffffffffffffffffffffff16036105fc576040517f08c379a00000000000000000000000000000000000000000000000000000000081526004016105f390611542565b60405180910390fd5b5f60648261060a919061158d565b90505f60646003548361061d919061158d565b61062791906115fb565b90505f6064600160648461063b919061162b565b610645919061165e565b61064f91906115fb565b90505f818561065e919061165e565b90508773ffffffffffffffffffffffffffffffffffffffff1663095ea7b330876040518363ffffffff1660e01b815260040161069b929190611691565b6020604051808303815f875af11580156106b7573d5f803e3d5ffd5b505050506040513d601f19601f820116820180604052508101906106db91906116e2565b508773ffffffffffffffffffffffffffffffffffffffff166323b872dd8888846040518463ffffffff1660e01b81526004016107199392919061170d565b6020604051808303815f875af1158015610735573d5f803e3d5ffd5b505050506040513d601f19601f8201168201806040525081019061075991906116e2565b610798576040517f08c379a000000000000000000000000000000000000000000000000000000000815260040161078f9061178c565b60405180910390fd5b8773ffffffffffffffffffffffffffffffffffffffff166323b872dd8860025f9054906101000a900473ffffffffffffffffffffffffffffffffffffffff16856040518463ffffffff1660e01b81526004016107f69392919061170d565b6020604051808303815f875af1158015610812573d5f803e3d5ffd5b505050506040513d601f19601f8201168201806040525081019061083691906116e2565b610875576040517f08c379a000000000000000000000000000000000000000000000000000000000815260040161086c906117f4565b60405180910390fd5b808773ffffffffffffffffffffffffffffffffffffffff168973ffffffffffffffffffffffffffffffffffffffff167f2af4e6474e6d481ba31ede989d35e3ad57197899778b4d7aaefdd91e84cd58fa60405160405180910390a48160025f9054906101000a900473ffffffffffffffffffffffffffffffffffffffff1673ffffffffffffffffffffffffffffffffffffffff167ffb5cc77bfc4f5b5676f6c4e24d470179f3bd0f938b0d3fb94f516120e3f5d42f60405160405180910390a350505050610941610fc0565b50505050565b60015f9054906101000a900473ffffffffffffffffffffffffffffffffffffffff1673ffffffffffffffffffffffffffffffffffffffff163373ffffffffffffffffffffffffffffffffffffffff16146109d6576040517f08c379a00000000000000000000000000000000000000000000000000000000081526004016109cd906113e4565b60405180910390fd5b8073ffffffffffffffffffffffffffffffffffffffff165f73ffffffffffffffffffffffffffffffffffffffff1603610a44576040517f08c379a0000000000000000000000000000000000000000000000000000000008152600401610a3b9061144c565b60405180910390fd5b600160045f8373ffffffffffffffffffffffffffffffffffffffff1673ffffffffffffffffffffffffffffffffffffffff1681526020019081526020015f205f6101000a81548160ff021916908315150217905550600115158173ffffffffffffffffffffffffffffffffffffffff167f8a7039f4ea6f86a6a98d9c1efb0ea9d190f6b3fa37c32627cf48f767f51e36d560405160405180910390a350565b5f60015f9054906101000a900473ffffffffffffffffffffffffffffffffffffffff1673ffffffffffffffffffffffffffffffffffffffff163373ffffffffffffffffffffffffffffffffffffffff1614610b73576040517f08c379a0000000000000000000000000000000000000000000000000000000008152600401610b6a906113e4565b60405180910390fd5b6064821115610bb7576040517f08c379a0000000000000000000000000000000000000000000000000000000008152600401610bae9061185c565b60405180910390fd5b8160038190555060019050919050565b5f808473ffffffffffffffffffffffffffffffffffffffff1663095ea7b3857fffffffffffffffffffffffffffffffffffffffffffffffffffffffffffffffff6040518363ffffffff1660e01b8152600401610c24929190611691565b6020604051808303815f875af1158015610c40573d5f803e3d5ffd5b505050506040513d601f19601f82011682018060405250810190610c6491906116e2565b90505f8060055f8060ff1681526020019081526020015f205f9054906101000a900473ffffffffffffffffffffffffffffffffffffffff1673ffffffffffffffffffffffffffffffffffffffff1685604051610cc091906118e6565b5f604051808303815f865af19150503d805f8114610cf9576040519150601f19603f3d011682016040523d82523d5f602084013e610cfe565b606091505b509150915081610d43576040517f08c379a0000000000000000000000000000000000000000000000000000000008152600401610d3a90611946565b60405180910390fd5b80806020019051810190610d579190611978565b93505050509392505050565b5f8060648060035485610d76919061158d565b610d80919061158d565b610d8a91906115fb565b905080915050919050565b60035481565b60025f9054906101000a900473ffffffffffffffffffffffffffffffffffffffff1681565b5f610dc9610f73565b60015f9054906101000a900473ffffffffffffffffffffffffffffffffffffffff1673ffffffffffffffffffffffffffffffffffffffff163373ffffffffffffffffffffffffffffffffffffffff1614610e58576040517f08c379a0000000000000000000000000000000000000000000000000000000008152600401610e4f906113e4565b60405180910390fd5b5f8203610e9a576040517f08c379a0000000000000000000000000000000000000000000000000000000008152600401610e9190611a13565b60405180910390fd5b5f8373ffffffffffffffffffffffffffffffffffffffff1663a9059cbb33856040518363ffffffff1660e01b8152600401610ed6929190611691565b6020604051808303815f875af1158015610ef2573d5f803e3d5ffd5b505050506040513d601f19601f82011682018060405250810190610f1691906116e2565b9050828473ffffffffffffffffffffffffffffffffffffffff167f2d305145c4dacc194014b3fb9a07f7934da0d95b07651dec68b0ac12b6e0330a60405160405180910390a380915050610f68610fc0565b92915050565b606481565b60025f5403610fb7576040517f08c379a0000000000000000000000000000000000000000000000000000000008152600401610fae90611a7b565b60405180910390fd5b60025f81905550565b60015f81905550565b5f604051905090565b5f80fd5b5f80fd5b5f73ffffffffffffffffffffffffffffffffffffffff82169050919050565b5f61100382610fda565b9050919050565b61101381610ff9565b811461101d575f80fd5b50565b5f8135905061102e8161100a565b92915050565b5f6020828403121561104957611048610fd2565b5b5f61105684828501611020565b91505092915050565b5f8115159050919050565b6110738161105f565b82525050565b5f60208201905061108c5f83018461106a565b92915050565b5f819050919050565b6110a481611092565b81146110ae575f80fd5b50565b5f813590506110bf8161109b565b92915050565b5f805f80608085870312156110dd576110dc610fd2565b5b5f6110ea87828801611020565b94505060206110fb87828801611020565b935050604061110c87828801611020565b925050606061111d878288016110b1565b91505092959194509250565b5f6020828403121561113e5761113d610fd2565b5b5f61114b848285016110b1565b91505092915050565b5f80fd5b5f80fd5b5f601f19601f8301169050919050565b7f4e487b71000000000000000000000000000000000000000000000000000000005f52604160045260245ffd5b6111a28261115c565b810181811067ffffffffffffffff821117156111c1576111c061116c565b5b80604052505050565b5f6111d3610fc9565b90506111df8282611199565b919050565b5f67ffffffffffffffff8211156111fe576111fd61116c565b5b6112078261115c565b9050602081019050919050565b828183375f83830152505050565b5f61123461122f846111e4565b6111ca565b9050828152602081018484840111156112505761124f611158565b5b61125b848285611214565b509392505050565b5f82601f83011261127757611276611154565b5b8135611287848260208601611222565b91505092915050565b5f805f606084860312156112a7576112a6610fd2565b5b5f6112b486828701611020565b93505060206112c586828701611020565b925050604084013567ffffffffffffffff8111156112e6576112e5610fd6565b5b6112f286828701611263565b9150509250925092565b61130581611092565b82525050565b5f60208201905061131e5f8301846112fc565b92915050565b61132d81610ff9565b82525050565b5f6020820190506113465f830184611324565b92915050565b5f806040838503121561136257611361610fd2565b5b5f61136f85828601611020565b9250506020611380858286016110b1565b9150509250929050565b5f82825260208201905092915050565b7f63616c6c6572206973206e6f74206120737570657241646d696e0000000000005f82015250565b5f6113ce601a8361138a565b91506113d98261139a565b602082019050919050565b5f6020820190508181035f8301526113fb816113c2565b9050919050565b7f496e76616c6964207573657200000000000000000000000000000000000000005f82015250565b5f611436600c8361138a565b915061144182611402565b602082019050919050565b5f6020820190508181035f8301526114638161142a565b9050919050565b7f5472616e7366657220616d6f756e74206d7573742062652067726561746572205f8201527f7468616e205a65726f0000000000000000000000000000000000000000000000602082015250565b5f6114c460298361138a565b91506114cf8261146a565b604082019050919050565b5f6020820190508181035f8301526114f1816114b8565b9050919050565b7f496e76616c696420726563697069656e740000000000000000000000000000005f82015250565b5f61152c60118361138a565b9150611537826114f8565b602082019050919050565b5f6020820190508181035f83015261155981611520565b9050919050565b7f4e487b71000000000000000000000000000000000000000000000000000000005f52601160045260245ffd5b5f61159782611092565b91506115a283611092565b92508282026115b081611092565b915082820484148315176115c7576115c6611560565b5b5092915050565b7f4e487b71000000000000000000000000000000000000000000000000000000005f52601260045260245ffd5b5f61160582611092565b915061161083611092565b9250826116205761161f6115ce565b5b828204905092915050565b5f61163582611092565b915061164083611092565b925082820190508082111561165857611657611560565b5b92915050565b5f61166882611092565b915061167383611092565b925082820390508181111561168b5761168a611560565b5b92915050565b5f6040820190506116a45f830185611324565b6116b160208301846112fc565b9392505050565b6116c18161105f565b81146116cb575f80fd5b50565b5f815190506116dc816116b8565b92915050565b5f602082840312156116f7576116f6610fd2565b5b5f611704848285016116ce565b91505092915050565b5f6060820190506117205f830186611324565b61172d6020830185611324565b61173a60408301846112fc565b949350505050565b7f5472616e7366657220746f207265636569766572206661696c656400000000005f82015250565b5f611776601b8361138a565b915061178182611742565b602082019050919050565b5f6020820190508181035f8301526117a38161176a565b9050919050565b7f466565207472616e73666572206661696c6564000000000000000000000000005f82015250565b5f6117de60138361138a565b91506117e9826117aa565b602082019050919050565b5f6020820190508181035f83015261180b816117d2565b9050919050565b7f20666565206d757374207570746f2031303025000000000000000000000000005f82015250565b5f61184660138361138a565b915061185182611812565b602082019050919050565b5f6020820190508181035f8301526118738161183a565b9050919050565b5f81519050919050565b5f81905092915050565b5f5b838110156118ab578082015181840152602081019050611890565b5f8484015250505050565b5f6118c08261187a565b6118ca8185611884565b93506118da81856020860161188e565b80840191505092915050565b5f6118f182846118b6565b915081905092915050565b7f535741505f43414c4c5f4641494c4544000000000000000000000000000000005f82015250565b5f61193060108361138a565b915061193b826118fc565b602082019050919050565b5f6020820190508181035f83015261195d81611924565b9050919050565b5f815190506119728161109b565b92915050565b5f6020828403121561198d5761198c610fd2565b5b5f61199a84828501611964565b91505092915050565b7f537461626c69783a20616d6f756e742073686f756c64206265206772656174655f8201527f72207468616e207a65726f000000000000000000000000000000000000000000602082015250565b5f6119fd602b8361138a565b9150611a08826119a3565b604082019050919050565b5f6020820190508181035f830152611a2a816119f1565b9050919050565b7f5265656e7472616e637947756172643a207265656e7472616e742063616c6c005f82015250565b5f611a65601f8361138a565b9150611a7082611a31565b602082019050919050565b5f6020820190508181035f830152611a9281611a59565b905091905056fea2646970667358221220fcdab40e79b7a53a12dd3e32cfbad8ab9cb2f6c24c97ab647cfe4a4c92fdb20b64736f6c63430008140033",
  "immutableReferences": {},
  "source": "// SPDX-License-Identifier: UNLICENSED\r\n\r\npragma solidity ^0.8.0;\r\n\r\nimport {IERC20Detailed} from \"@aave/core-v3/contracts/dependencies/openzeppelin/contracts/IERC20Detailed.sol\";\r\nimport \"@openzeppelin/contracts/security/ReentrancyGuard.sol\";\r\n\r\ninterface IERC20 {\r\n    function approve(address spender, uint256 amount) external returns (bool);\r\n    function transferFrom(address from, address to, uint256 value) external returns (bool);\r\n    \r\n}\r\n\r\ncontract Swapper is ReentrancyGuard {\r\n   \r\n\r\n    event FUNDTransferred(address indexed account, uint256 indexed amount);\r\n    event AdminAdded(address indexed account, bool indexed status);\r\n    event AdminRemoved(address indexed account, bool indexed status);\r\n    event CommissionTransferred(address indexed account, uint256 indexed commissionAmount); \r\n    event transferFundToR(address indexed token,address indexed from,uint256 indexed actualAmount); // Event for commission transfer\r\n    event transferFeeFund(address indexed AdmiWalletAddress, uint256 indexed feeAmount);\r\n\r\n    address superAdmin;\r\n    address public AdmiWalletAddress; // Address to receive the commission\r\n    uint256 public AdminFeePercentage = 2; // 2% commission\r\n    uint256 public constant SCALING_FACTOR = 100;\r\n\r\n    mapping(address => bool) admins;\r\n    mapping(uint8 => address) internal DexAddresses;\r\n\r\n    modifier onlySuperAdmin() {\r\n        require(msg.sender == superAdmin, \"caller is not a superAdmin\");\r\n        _;\r\n    }\r\n\r\n    modifier onlyAdmin() {\r\n        require(admins[msg.sender], \"caller is not admin\");\r\n        _;\r\n    }\r\n\r\n    constructor(address _ZERO_X_ADDRESS, address _ONEINCHADDRESS, address _OPENOCEANADDRESS, address _PARASWAPADDRESS, address _AdmiWalletAddress) payable\r\n        ReentrancyGuard()\r\n    {\r\n        DexAddresses[0] = _ZERO_X_ADDRESS;\r\n        DexAddresses[1] = _ONEINCHADDRESS;\r\n        DexAddresses[2] = _OPENOCEANADDRESS;\r\n        DexAddresses[3] = _PARASWAPADDRESS;\r\n        superAdmin = msg.sender;\r\n        AdmiWalletAddress = _AdmiWalletAddress; // Set the commission address\r\n    }\r\n\r\n    function addAdmin(address user) external onlySuperAdmin() {\r\n        require(address(0) != user, \"Invalid user\");\r\n        admins[user] = true;\r\n        emit AdminAdded(user, true);\r\n    }\r\n\r\n    function removeAdmin(address user) external onlySuperAdmin() {\r\n        require(address(0) != user, \"Invalid user\");\r\n        admins[user] = false;\r\n        emit AdminRemoved(user, false);\r\n    }\r\n\r\n    function withdrawFunds(address token, uint256 amount) external nonReentrant() onlySuperAdmin() returns(bool) {\r\n        require(amount != 0, \"Stablix: amount should be greater than zero\");\r\n        bool status = IERC20Detailed(token).transfer(msg.sender, amount);\r\n        emit FUNDTransferred(token, amount);\r\n        return status;\r\n    }\r\n\r\n    function withdraw() external nonReentrant() onlySuperAdmin() returns(bool) {\r\n        uint256 self;\r\n        assembly {\r\n            self := selfbalance()\r\n        }\r\n        payable(msg.sender).transfer(self);\r\n        return true;\r\n    }\r\n\r\n    function calldataSwap(address tokenIn, address approveTarget, bytes memory swapCallData) external returns(uint256) {\r\n        bool success = IERC20(tokenIn).approve(approveTarget, type(uint256).max);\r\n        (bool txsuccess, bytes memory amountOut) = DexAddresses[0].call(swapCallData);\r\n        require(txsuccess, \"SWAP_CALL_FAILED\");\r\n        return abi.decode(amountOut, (uint256));\r\n    }\r\n\r\n    function UpdateAdminFee(uint256 _newFeePercentage) external onlySuperAdmin() returns(bool) {\r\n        require(_newFeePercentage <= 100, \" fee must upto 100%\");\r\n        AdminFeePercentage = _newFeePercentage;\r\n        return true;\r\n    }\r\n\r\n    function transferFund(address token, address from, address to, uint256 _Amount) external nonReentrant {\r\n        require(_Amount != 0, \"Transfer amount must be greater than Zero\");\r\n        require(address(0) != to, \"Invalid recipient\");\r\n\r\n        // Step 1: Scale the amount (multiply by scaling factor to simulate decimal)\r\n        uint256 scaledAmount = _Amount * SCALING_FACTOR;\r\n        \r\n        // Step 2: Calculate the fee amount (scaled)\r\n        uint256 feeAmount = (scaledAmount * AdminFeePercentage) / 100;\r\n        \r\n        uint256 roundedFeeAmount = (feeAmount + SCALING_FACTOR - 1) / SCALING_FACTOR;\r\n\r\n        //  Calculate the actual amount (after fee)\r\n        uint256 actualAmount = _Amount - roundedFeeAmount;\r\n\r\n       \r\n        IERC20(token).approve(address(this), _Amount);\r\n\r\n        // Transfer the actual amount to the receiver\r\n        require(IERC20(token).transferFrom(from, to, actualAmount), \"Transfer to receiver failed\");\r\n\r\n        //  Transfer the rounded fee amount to the admin wallet\r\n        require(IERC20(token).transferFrom(from, AdmiWalletAddress, roundedFeeAmount), \"Fee transfer failed\");\r\n\r\n        // Emit events for transfer and fee\r\n        emit transferFundToR(token, from, actualAmount);\r\n        emit transferFeeFund(AdmiWalletAddress, roundedFeeAmount);\r\n    }\r\n\r\n\r\n    function toCalculateAdminFee(uint256 _amount) external view returns(uint256) {\r\n\r\n    // Calculate the fee with the precision scaling\r\n    uint256 totalFee = (_amount * AdminFeePercentage * SCALING_FACTOR) / 100;\r\n    \r\n    return totalFee;  // The result is scaled by 100 (i.e., 20.40 would be returned as 2040)\r\n}\r\n\r\n    /**\r\n        This function is called after your contract has received the flash loaned amount\r\n     */\r\n    receive() external payable {}\r\n}\r\n",
  "sourcePath": "D:\\FABC's_Projects\\swapper_contract\\contracts\\Swapper.sol",
  "compiler": {
    "name": "solc",
    "version": "0.8.20+commit.a1b79de6.Emscripten.clang"
  },
  "schemaVersion": "3.4.16",
  "updatedAt": "2026-05-13T07:45:50.536Z",
  "devdoc": {
    "kind": "dev",
    "methods": {},
    "version": 1
  },
  "userdoc": {
    "kind": "user",
    "methods": {},
    "version": 1
  }
}